{
  "_format": "hh-sol-artifact-1",
  "contractName": "GovernanceToken",
  "sourceName": "contracts/GovernanceToken.sol",
  "abi": [
    {
      "inputs": [],
      "stateMutability": "nonpayable",
      "type": "constructor"
    },
    {
      "inputs": [],
      "name": "InvalidShortString",
      "type": "error"
    },
    {
      "inputs": [
        {
          "internalType": "string",
          "name": "str",
          "type": "string"
        }
      ],
      "name": "StringTooLong",
      "type": "error"
    },
    {
      "anonymous": false,
      "inputs": [
        {
          "indexed": true,
          "internalType": "address",
          "name": "owner",
          "type": "address"
        },
        {
          "indexed": true,
          "internalType": "address",
          "name": "spender",
          "type": "address"
        },
        {
          "indexed": false,
          "internalType": "uint256",
          "name": "value",
          "type": "uint256"
        }
      ],
      "name": "Approval",
      "type": "event"
    },
    {
      "anonymous": false,
      "inputs": [
        {
          "indexed": true,
          "internalType": "address",
          "name": "delegator",
          "type": "address"
        },
        {
          "indexed": true,
          "internalType": "address",
          "name": "fromDelegate",
          "type": "address"
        },
        {
          "indexed": true,
          "internalType": "address",
          "name": "toDelegate",
          "type": "address"
        }
      ],
      "name": "DelegateChanged",
      "type": "event"
    },
    {
      "anonymous": false,
      "inputs": [
        {
          "indexed": true,
          "internalType": "address",
          "name": "delegate",
          "type": "address"
        },
        {
          "indexed": false,
          "internalType": "uint256",
          "name": "previousBalance",
          "type": "uint256"
        },
        {
          "indexed": false,
          "internalType": "uint256",
          "name": "newBalance",
          "type": "uint256"
        }
      ],
      "name": "DelegateVotesChanged",
      "type": "event"
    },
    {
      "anonymous": false,
      "inputs": [],
      "name": "EIP712DomainChanged",
      "type": "event"
    },
    {
      "anonymous": false,
      "inputs": [
        {
          "indexed": true,
          "internalType": "address",
          "name": "from",
          "type": "address"
        },
        {
          "indexed": true,
          "internalType": "address",
          "name": "to",
          "type": "address"
        },
        {
          "indexed": false,
          "internalType": "uint256",
          "name": "value",
          "type": "uint256"
        }
      ],
      "name": "Transfer",
      "type": "event"
    },
    {
      "inputs": [],
      "name": "CLOCK_MODE",
      "outputs": [
        {
          "internalType": "string",
          "name": "",
          "type": "string"
        }
      ],
      "stateMutability": "view",
      "type": "function"
    },
    {
      "inputs": [],
      "name": "DOMAIN_SEPARATOR",
      "outputs": [
        {
          "internalType": "bytes32",
          "name": "",
          "type": "bytes32"
        }
      ],
      "stateMutability": "view",
      "type": "function"
    },
    {
      "inputs": [
        {
          "internalType": "address",
          "name": "owner",
          "type": "address"
        },
        {
          "internalType": "address",
          "name": "spender",
          "type": "address"
        }
      ],
      "name": "allowance",
      "outputs": [
        {
          "internalType": "uint256",
          "name": "",
          "type": "uint256"
        }
      ],
      "stateMutability": "view",
      "type": "function"
    },
    {
      "inputs": [
        {
          "internalType": "address",
          "name": "spender",
          "type": "address"
        },
        {
          "internalType": "uint256",
          "name": "amount",
          "type": "uint256"
        }
      ],
      "name": "approve",
      "outputs": [
        {
          "internalType": "bool",
          "name": "",
          "type": "bool"
        }
      ],
      "stateMutability": "nonpayable",
      "type": "function"
    },
    {
      "inputs": [
        {
          "internalType": "address",
          "name": "account",
          "type": "address"
        }
      ],
      "name": "balanceOf",
      "outputs": [
        {
          "internalType": "uint256",
          "name": "",
          "type": "uint256"
        }
      ],
      "stateMutability": "view",
      "type": "function"
    },
    {
      "inputs": [
        {
          "internalType": "address",
          "name": "account",
          "type": "address"
        },
        {
          "internalType": "uint32",
          "name": "pos",
          "type": "uint32"
        }
      ],
      "name": "checkpoints",
      "outputs": [
        {
          "components": [
            {
              "internalType": "uint32",
              "name": "fromBlock",
              "type": "uint32"
            },
            {
              "internalType": "uint224",
              "name": "votes",
              "type": "uint224"
            }
          ],
          "internalType": "struct ERC20Votes.Checkpoint",
          "name": "",
          "type": "tuple"
        }
      ],
      "stateMutability": "view",
      "type": "function"
    },
    {
      "inputs": [],
      "name": "clock",
      "outputs": [
        {
          "internalType": "uint48",
          "name": "",
          "type": "uint48"
        }
      ],
      "stateMutability": "view",
      "type": "function"
    },
    {
      "inputs": [],
      "name": "decimals",
      "outputs": [
        {
          "internalType": "uint8",
          "name": "",
          "type": "uint8"
        }
      ],
      "stateMutability": "view",
      "type": "function"
    },
    {
      "inputs": [
        {
          "internalType": "address",
          "name": "spender",
          "type": "address"
        },
        {
          "internalType": "uint256",
          "name": "subtractedValue",
          "type": "uint256"
        }
      ],
      "name": "decreaseAllowance",
      "outputs": [
        {
          "internalType": "bool",
          "name": "",
          "type": "bool"
        }
      ],
      "stateMutability": "nonpayable",
      "type": "function"
    },
    {
      "inputs": [
        {
          "internalType": "address",
          "name": "delegatee",
          "type": "address"
        }
      ],
      "name": "delegate",
      "outputs": [],
      "stateMutability": "nonpayable",
      "type": "function"
    },
    {
      "inputs": [
        {
          "internalType": "address",
          "name": "delegatee",
          "type": "address"
        },
        {
          "internalType": "uint256",
          "name": "nonce",
          "type": "uint256"
        },
        {
          "internalType": "uint256",
          "name": "expiry",
          "type": "uint256"
        },
        {
          "internalType": "uint8",
          "name": "v",
          "type": "uint8"
        },
        {
          "internalType": "bytes32",
          "name": "r",
          "type": "bytes32"
        },
        {
          "internalType": "bytes32",
          "name": "s",
          "type": "bytes32"
        }
      ],
      "name": "delegateBySig",
      "outputs": [],
      "stateMutability": "nonpayable",
      "type": "function"
    },
    {
      "inputs": [
        {
          "internalType": "address",
          "name": "account",
          "type": "address"
        }
      ],
      "name": "delegates",
      "outputs": [
        {
          "internalType": "address",
          "name": "",
          "type": "address"
        }
      ],
      "stateMutability": "view",
      "type": "function"
    },
    {
      "inputs": [],
      "name": "eip712Domain",
      "outputs": [
        {
          "internalType": "bytes1",
          "name": "fields",
          "type": "bytes1"
        },
        {
          "internalType": "string",
          "name": "name",
          "type": "string"
        },
        {
          "internalType": "string",
          "name": "version",
          "type": "string"
        },
        {
          "internalType": "uint256",
          "name": "chainId",
          "type": "uint256"
        },
        {
          "internalType": "address",
          "name": "verifyingContract",
          "type": "address"
        },
        {
          "internalType": "bytes32",
          "name": "salt",
          "type": "bytes32"
        },
        {
          "internalType": "uint256[]",
          "name": "extensions",
          "type": "uint256[]"
        }
      ],
      "stateMutability": "view",
      "type": "function"
    },
    {
      "inputs": [
        {
          "internalType": "uint256",
          "name": "timepoint",
          "type": "uint256"
        }
      ],
      "name": "getPastTotalSupply",
      "outputs": [
        {
          "internalType": "uint256",
          "name": "",
          "type": "uint256"
        }
      ],
      "stateMutability": "view",
      "type": "function"
    },
    {
      "inputs": [
        {
          "internalType": "address",
          "name": "account",
          "type": "address"
        },
        {
          "internalType": "uint256",
          "name": "timepoint",
          "type": "uint256"
        }
      ],
      "name": "getPastVotes",
      "outputs": [
        {
          "internalType": "uint256",
          "name": "",
          "type": "uint256"
        }
      ],
      "stateMutability": "view",
      "type": "function"
    },
    {
      "inputs": [
        {
          "internalType": "address",
          "name": "account",
          "type": "address"
        }
      ],
      "name": "getVotes",
      "outputs": [
        {
          "internalType": "uint256",
          "name": "",
          "type": "uint256"
        }
      ],
      "stateMutability": "view",
      "type": "function"
    },
    {
      "inputs": [
        {
          "internalType": "address",
          "name": "spender",
          "type": "address"
        },
        {
          "internalType": "uint256",
          "name": "addedValue",
          "type": "uint256"
        }
      ],
      "name": "increaseAllowance",
      "outputs": [
        {
          "internalType": "bool",
          "name": "",
          "type": "bool"
        }
      ],
      "stateMutability": "nonpayable",
      "type": "function"
    },
    {
      "inputs": [],
      "name": "name",
      "outputs": [
        {
          "internalType": "string",
          "name": "",
          "type": "string"
        }
      ],
      "stateMutability": "view",
      "type": "function"
    },
    {
      "inputs": [
        {
          "internalType": "address",
          "name": "owner",
          "type": "address"
        }
      ],
      "name": "nonces",
      "outputs": [
        {
          "internalType": "uint256",
          "name": "",
          "type": "uint256"
        }
      ],
      "stateMutability": "view",
      "type": "function"
    },
    {
      "inputs": [
        {
          "internalType": "address",
          "name": "account",
          "type": "address"
        }
      ],
      "name": "numCheckpoints",
      "outputs": [
        {
          "internalType": "uint32",
          "name": "",
          "type": "uint32"
        }
      ],
      "stateMutability": "view",
      "type": "function"
    },
    {
      "inputs": [
        {
          "internalType": "address",
          "name": "owner",
          "type": "address"
        },
        {
          "internalType": "address",
          "name": "spender",
          "type": "address"
        },
        {
          "internalType": "uint256",
          "name": "value",
          "type": "uint256"
        },
        {
          "internalType": "uint256",
          "name": "deadline",
          "type": "uint256"
        },
        {
          "internalType": "uint8",
          "name": "v",
          "type": "uint8"
        },
        {
          "internalType": "bytes32",
          "name": "r",
          "type": "bytes32"
        },
        {
          "internalType": "bytes32",
          "name": "s",
          "type": "bytes32"
        }
      ],
      "name": "permit",
      "outputs": [],
      "stateMutability": "nonpayable",
      "type": "function"
    },
    {
      "inputs": [],
      "name": "s_maxSupply",
      "outputs": [
        {
          "internalType": "uint256",
          "name": "",
          "type": "uint256"
        }
      ],
      "stateMutability": "view",
      "type": "function"
    },
    {
      "inputs": [],
      "name": "symbol",
      "outputs": [
        {
          "internalType": "string",
          "name": "",
          "type": "string"
        }
      ],
      "stateMutability": "view",
      "type": "function"
    },
    {
      "inputs": [],
      "name": "totalSupply",
      "outputs": [
        {
          "internalType": "uint256",
          "name": "",
          "type": "uint256"
        }
      ],
      "stateMutability": "view",
      "type": "function"
    },
    {
      "inputs": [
        {
          "internalType": "address",
          "name": "to",
          "type": "address"
        },
        {
          "internalType": "uint256",
          "name": "amount",
          "type": "uint256"
        }
      ],
      "name": "transfer",
      "outputs": [
        {
          "internalType": "bool",
          "name": "",
          "type": "bool"
        }
      ],
      "stateMutability": "nonpayable",
      "type": "function"
    },
    {
      "inputs": [
        {
          "internalType": "address",
          "name": "from",
          "type": "address"
        },
        {
          "internalType": "address",
          "name": "to",
          "type": "address"
        },
        {
          "internalType": "uint256",
          "name": "amount",
          "type": "uint256"
        }
      ],
      "name": "transferFrom",
      "outputs": [
        {
          "internalType": "bool",
          "name": "",
          "type": "bool"
        }
      ],
      "stateMutability": "nonpayable",
      "type": "function"
    }
  ],
  "bytecode": "0x6101606040523480156200001257600080fd5b506040518060400160405280600f81526020016e23b7bb32b93730b731b2aa37b5b2b760891b81525080604051806040016040528060018152602001603160f81b8152506040518060400160405280600f81526020016e23b7bb32b93730b731b2aa37b5b2b760891b8152506040518060400160405280600381526020016247544b60e81b8152508160039081620000ab9190620008c2565b506004620000ba8282620008c2565b50620000cc9150839050600562000191565b61012052620000dd81600662000191565b61014052815160208084019190912060e052815190820120610100524660a0526200016b60e05161010051604080517f8b73c3c69bb8fe3d512ecc4cf759cc79239f7b179b0ffacaa9a75d522b39400f60208201529081019290925260608201524660808201523060a082015260009060c00160405160208183030381529060405280519060200120905090565b60805250503060c052506200018b3369d3c21bcecceda1000000620001ca565b62000a45565b6000602083511015620001b157620001a983620001da565b9050620001c4565b81620001be8482620008c2565b5060ff90505b92915050565b620001d6828262000226565b5050565b600080829050601f8151111562000211578260405163305a27a960e01b81526004016200020891906200098e565b60405180910390fd5b80516200021e82620009de565b179392505050565b620002328282620002ce565b6001600160e01b03620002466200039b8216565b1115620002af5760405162461bcd60e51b815260206004820152603060248201527f4552433230566f7465733a20746f74616c20737570706c79207269736b73206f60448201526f766572666c6f77696e6720766f74657360801b606482015260840162000208565b620002c8600b62000bde620003a160201b1783620003b6565b50505050565b6001600160a01b038216620003265760405162461bcd60e51b815260206004820152601f60248201527f45524332303a206d696e7420746f20746865207a65726f206164647265737300604482015260640162000208565b80600260008282546200033a919062000a19565b90915550506001600160a01b038216600081815260208181526040808320805486019055518481527fddf252ad1be2c89b69c2b068fc378daa952ba7f163c4a11628f55a4df523b3ef910160405180910390a3620001d66000838362000543565b60025490565b6000620003af828462000a19565b9392505050565b82546000908190818115620004055760008781526020902082016000190160408051808201909152905463ffffffff8116825264010000000090046001600160e01b031660208201526200041a565b60408051808201909152600080825260208201525b905080602001516001600160e01b031693506200043884868860201c565b92506000821180156200046557506200045062000550565b65ffffffffffff16816000015163ffffffff16145b15620004ae57620004768362000562565b60008881526020902083016000190180546001600160e01b03929092166401000000000263ffffffff90921691909117905562000534565b866040518060400160405280620004dc620004ce6200055060201b60201c565b65ffffffffffff16620005d1565b63ffffffff168152602001620004f28662000562565b6001600160e01b0390811690915282546001810184556000938452602093849020835194909301519091166401000000000263ffffffff909316929092179101555b5050935093915050565b505050565b6200053e83838362000638565b60006200055d436200066c565b905090565b60006001600160e01b03821115620005cd5760405162461bcd60e51b815260206004820152602760248201527f53616665436173743a2076616c756520646f65736e27742066697420696e20326044820152663234206269747360c81b606482015260840162000208565b5090565b600063ffffffff821115620005cd5760405162461bcd60e51b815260206004820152602660248201527f53616665436173743a2076616c756520646f65736e27742066697420696e203360448201526532206269747360d01b606482015260840162000208565b6001600160a01b038381166000908152600960205260408082205485841683529120546200053e92918216911683620006d5565b600065ffffffffffff821115620005cd5760405162461bcd60e51b815260206004820152602660248201527f53616665436173743a2076616c756520646f65736e27742066697420696e203460448201526538206269747360d01b606482015260840162000208565b816001600160a01b0316836001600160a01b031614158015620006f85750600081115b156200053e576001600160a01b0383161562000785576001600160a01b0383166000908152600a602090815260408220829162000742919062000810901b62000bea1785620003b6565b91509150846001600160a01b0316600080516020620029d783398151915283836040516200077a929190918252602082015260400190565b60405180910390a250505b6001600160a01b038216156200053e576001600160a01b0382166000908152600a6020908152604082208291620007c99190620003a1901b62000bde1785620003b6565b91509150836001600160a01b0316600080516020620029d7833981519152838360405162000801929190918252602082015260400190565b60405180910390a25050505050565b6000620003af828462000a2f565b634e487b7160e01b600052604160045260246000fd5b600181811c908216806200084957607f821691505b6020821081036200086a57634e487b7160e01b600052602260045260246000fd5b50919050565b601f8211156200053e57600081815260208120601f850160051c81016020861015620008995750805b601f850160051c820191505b81811015620008ba57828155600101620008a5565b505050505050565b81516001600160401b03811115620008de57620008de6200081e565b620008f681620008ef845462000834565b8462000870565b602080601f8311600181146200092e5760008415620009155750858301515b600019600386901b1c1916600185901b178555620008ba565b600085815260208120601f198616915b828110156200095f578886015182559484019460019091019084016200093e565b50858210156200097e5787850151600019600388901b60f8161c191681555b5050505050600190811b01905550565b600060208083528351808285015260005b81811015620009bd578581018301518582016040015282016200099f565b506000604082860101526040601f19601f8301168501019250505092915050565b805160208083015191908110156200086a5760001960209190910360031b1b16919050565b634e487b7160e01b600052601160045260246000fd5b80820180821115620001c457620001c462000a03565b81810381811115620001c457620001c462000a03565b60805160a05160c05160e051610100516101205161014051611f3762000aa060003960006106b90152600061068e0152600061101801526000610ff001526000610f4b01526000610f7501526000610f9f0152611f376000f3fe608060405234801561001057600080fd5b506004361061018e5760003560e01c806370a08231116100de5780639ab24eb011610097578063c3cda52011610071578063c3cda5201461039a578063d505accf146103ad578063dd62ed3e146103c0578063f1127ed8146103d357600080fd5b80639ab24eb014610361578063a457c2d714610374578063a9059cbb1461038757600080fd5b806370a08231146102d05780637ecebe00146102f957806384b0196e1461030c5780638e539e8c1461032757806391ddadf41461033a57806395d89b411461035957600080fd5b8063395093511161014b578063587cde1e11610125578063587cde1e1461023e5780635c19a95c146102825780635d641847146102975780636fcfff45146102a857600080fd5b806339509351146102105780633a46b1a8146102235780634bf5d7e91461023657600080fd5b806306fdde0314610193578063095ea7b3146101b157806318160ddd146101d457806323b872dd146101e6578063313ce567146101f95780633644e51514610208575b600080fd5b61019b610410565b6040516101a89190611b88565b60405180910390f35b6101c46101bf366004611bb7565b6104a2565b60405190151581526020016101a8565b6002545b6040519081526020016101a8565b6101c46101f4366004611be1565b6104bc565b604051601281526020016101a8565b6101d86104e0565b6101c461021e366004611bb7565b6104ef565b6101d8610231366004611bb7565b610511565b61019b61059b565b61026a61024c366004611c1d565b6001600160a01b039081166000908152600960205260409020541690565b6040516001600160a01b0390911681526020016101a8565b610295610290366004611c1d565b610633565b005b6101d869d3c21bcecceda100000081565b6102bb6102b6366004611c1d565b610640565b60405163ffffffff90911681526020016101a8565b6101d86102de366004611c1d565b6001600160a01b031660009081526020819052604090205490565b6101d8610307366004611c1d565b610662565b610314610680565b6040516101a89796959493929190611c38565b6101d8610335366004611cce565b610709565b610342610770565b60405165ffffffffffff90911681526020016101a8565b61019b61077b565b6101d861036f366004611c1d565b61078a565b6101c4610382366004611bb7565b61080c565b6101c4610395366004611bb7565b610887565b6102956103a8366004611cf8565b610895565b6102956103bb366004611d50565b6109cb565b6101d86103ce366004611dba565b610b2f565b6103e66103e1366004611ded565b610b5a565b60408051825163ffffffff1681526020928301516001600160e01b031692810192909252016101a8565b60606003805461041f90611e2d565b80601f016020809104026020016040519081016040528092919081815260200182805461044b90611e2d565b80156104985780601f1061046d57610100808354040283529160200191610498565b820191906000526020600020905b81548152906001019060200180831161047b57829003601f168201915b5050505050905090565b6000336104b0818585610bf6565b60019150505b92915050565b6000336104ca858285610d1a565b6104d5858585610d94565b506001949350505050565b60006104ea610f3e565b905090565b6000336104b08185856105028383610b2f565b61050c9190611e77565b610bf6565b600061051b610770565b65ffffffffffff1682106105725760405162461bcd60e51b815260206004820152601960248201527804552433230566f7465733a20667574757265206c6f6f6b757603c1b60448201526064015b60405180910390fd5b6001600160a01b0383166000908152600a602052604090206105949083611069565b9392505050565b6060436105a6610770565b65ffffffffffff16146105fb5760405162461bcd60e51b815260206004820152601d60248201527f4552433230566f7465733a2062726f6b656e20636c6f636b206d6f64650000006044820152606401610569565b5060408051808201909152601d81527f6d6f64653d626c6f636b6e756d6265722666726f6d3d64656661756c74000000602082015290565b61063d3382611152565b50565b6001600160a01b0381166000908152600a60205260408120546104b6906111cb565b6001600160a01b0381166000908152600760205260408120546104b6565b6000606080828080836106b47f00000000000000000000000000000000000000000000000000000000000000006005611234565b6106df7f00000000000000000000000000000000000000000000000000000000000000006006611234565b60408051600080825260208201909252600f60f81b9b939a50919850469750309650945092509050565b6000610713610770565b65ffffffffffff1682106107655760405162461bcd60e51b815260206004820152601960248201527804552433230566f7465733a20667574757265206c6f6f6b757603c1b6044820152606401610569565b6104b6600b83611069565b60006104ea436112df565b60606004805461041f90611e2d565b6001600160a01b0381166000908152600a602052604081205480156107f9576001600160a01b0383166000908152600a60205260409020805460001983019081106107d7576107d7611e8a565b60009182526020909120015464010000000090046001600160e01b03166107fc565b60005b6001600160e01b03169392505050565b6000338161081a8286610b2f565b90508381101561087a5760405162461bcd60e51b815260206004820152602560248201527f45524332303a2064656372656173656420616c6c6f77616e63652062656c6f77604482015264207a65726f60d81b6064820152608401610569565b6104d58286868403610bf6565b6000336104b0818585610d94565b834211156108e55760405162461bcd60e51b815260206004820152601d60248201527f4552433230566f7465733a207369676e617475726520657870697265640000006044820152606401610569565b604080517fe48329057bfd03d55e49b547132e39cffd9c1820ad7b9d4c5307691425d15adf60208201526001600160a01b03881691810191909152606081018690526080810185905260009061095f906109579060a00160405160208183030381529060405280519060200120611346565b858585611373565b905061096a8161139b565b86146109b85760405162461bcd60e51b815260206004820152601960248201527f4552433230566f7465733a20696e76616c6964206e6f6e6365000000000000006044820152606401610569565b6109c28188611152565b50505050505050565b83421115610a1b5760405162461bcd60e51b815260206004820152601d60248201527f45524332305065726d69743a206578706972656420646561646c696e650000006044820152606401610569565b60007f6e71edae12b1b97f4d1f60370fef10105fa2faae0126114a169c64845d6126c9888888610a4a8c61139b565b6040805160208101969096526001600160a01b0394851690860152929091166060840152608083015260a082015260c0810186905260e0016040516020818303038152906040528051906020012090506000610aa582611346565b90506000610ab582878787611373565b9050896001600160a01b0316816001600160a01b031614610b185760405162461bcd60e51b815260206004820152601e60248201527f45524332305065726d69743a20696e76616c6964207369676e617475726500006044820152606401610569565b610b238a8a8a610bf6565b50505050505050505050565b6001600160a01b03918216600090815260016020908152604080832093909416825291909152205490565b60408051808201909152600080825260208201526001600160a01b0383166000908152600a60205260409020805463ffffffff8416908110610b9e57610b9e611e8a565b60009182526020918290206040805180820190915291015463ffffffff8116825264010000000090046001600160e01b0316918101919091529392505050565b60006105948284611e77565b60006105948284611ea0565b6001600160a01b038316610c585760405162461bcd60e51b8152602060048201526024808201527f45524332303a20617070726f76652066726f6d20746865207a65726f206164646044820152637265737360e01b6064820152608401610569565b6001600160a01b038216610cb95760405162461bcd60e51b815260206004820152602260248201527f45524332303a20617070726f766520746f20746865207a65726f206164647265604482015261737360f01b6064820152608401610569565b6001600160a01b0383811660008181526001602090815260408083209487168084529482529182902085905590518481527f8c5be1e5ebec7d5bd14f71427d1e84f3dd0314c0f7b2291e5b200ac8c7c3b925910160405180910390a3505050565b6000610d268484610b2f565b90506000198114610d8e5781811015610d815760405162461bcd60e51b815260206004820152601d60248201527f45524332303a20696e73756666696369656e7420616c6c6f77616e63650000006044820152606401610569565b610d8e8484848403610bf6565b50505050565b6001600160a01b038316610df85760405162461bcd60e51b815260206004820152602560248201527f45524332303a207472616e736665722066726f6d20746865207a65726f206164604482015264647265737360d81b6064820152608401610569565b6001600160a01b038216610e5a5760405162461bcd60e51b815260206004820152602360248201527f45524332303a207472616e7366657220746f20746865207a65726f206164647260448201526265737360e81b6064820152608401610569565b6001600160a01b03831660009081526020819052604090205481811015610ed25760405162461bcd60e51b815260206004820152602660248201527f45524332303a207472616e7366657220616d6f756e7420657863656564732062604482015265616c616e636560d01b6064820152608401610569565b6001600160a01b03848116600081815260208181526040808320878703905593871680835291849020805487019055925185815290927fddf252ad1be2c89b69c2b068fc378daa952ba7f163c4a11628f55a4df523b3ef910160405180910390a3610d8e8484846113c8565b6000306001600160a01b037f000000000000000000000000000000000000000000000000000000000000000016148015610f9757507f000000000000000000000000000000000000000000000000000000000000000046145b15610fc157507f000000000000000000000000000000000000000000000000000000000000000090565b6104ea604080517f8b73c3c69bb8fe3d512ecc4cf759cc79239f7b179b0ffacaa9a75d522b39400f60208201527f0000000000000000000000000000000000000000000000000000000000000000918101919091527f000000000000000000000000000000000000000000000000000000000000000060608201524660808201523060a082015260009060c00160405160208183030381529060405280519060200120905090565b8154600090818160058111156110c3576000611084846113d3565b61108e9085611ea0565b600088815260209020909150869082015463ffffffff1611156110b3578091506110c1565b6110be816001611e77565b92505b505b808210156111105760006110d783836114bb565b600088815260209020909150869082015463ffffffff1611156110fc5780915061110a565b611107816001611e77565b92505b506110c3565b801561113c576000868152602090208101600019015464010000000090046001600160e01b031661113f565b60005b6001600160e01b03169695505050505050565b6001600160a01b038281166000818152600960208181526040808420805485845282862054949093528787166001600160a01b03198416811790915590519190951694919391928592917f3134e8a2e6d97e929a7e54011ea5485d7d196dd5f0ba4d4ef95803e8e3fc257f9190a4610d8e8284836114d6565b600063ffffffff8211156112305760405162461bcd60e51b815260206004820152602660248201527f53616665436173743a2076616c756520646f65736e27742066697420696e203360448201526532206269747360d01b6064820152608401610569565b5090565b606060ff831461124e5761124783611613565b90506104b6565b81805461125a90611e2d565b80601f016020809104026020016040519081016040528092919081815260200182805461128690611e2d565b80156112d35780601f106112a8576101008083540402835291602001916112d3565b820191906000526020600020905b8154815290600101906020018083116112b657829003601f168201915b505050505090506104b6565b600065ffffffffffff8211156112305760405162461bcd60e51b815260206004820152602660248201527f53616665436173743a2076616c756520646f65736e27742066697420696e203460448201526538206269747360d01b6064820152608401610569565b60006104b6611353610f3e565b8360405161190160f01b8152600281019290925260228201526042902090565b600080600061138487878787611652565b9150915061139181611716565b5095945050505050565b6001600160a01b03811660009081526007602052604090208054600181018255905b50919050565b505050565b6113c3838383611860565b6000816000036113e557506000919050565b600060016113f284611892565b901c6001901b9050600181848161140b5761140b611eb3565b048201901c9050600181848161142357611423611eb3565b048201901c9050600181848161143b5761143b611eb3565b048201901c9050600181848161145357611453611eb3565b048201901c9050600181848161146b5761146b611eb3565b048201901c9050600181848161148357611483611eb3565b048201901c9050600181848161149b5761149b611eb3565b048201901c9050610594818285816114b5576114b5611eb3565b04611926565b60006114ca6002848418611ec9565b61059490848416611e77565b816001600160a01b0316836001600160a01b0316141580156114f85750600081115b156113c3576001600160a01b03831615611586576001600160a01b0383166000908152600a60205260408120819061153390610bea8561193c565b91509150846001600160a01b03167fdec2bacdd2f05b59de34da9b523dff8be42e5e38e818c82fdb0bae774387a724838360405161157b929190918252602082015260400190565b60405180910390a250505b6001600160a01b038216156113c3576001600160a01b0382166000908152600a6020526040812081906115bc90610bde8561193c565b91509150836001600160a01b03167fdec2bacdd2f05b59de34da9b523dff8be42e5e38e818c82fdb0bae774387a7248383604051611604929190918252602082015260400190565b60405180910390a25050505050565b6060600061162083611ab1565b604080516020808252818301909252919250600091906020820181803683375050509182525060208101929092525090565b6000807f7fffffffffffffffffffffffffffffff5d576e7357a4501ddfe92f46681b20a0831115611689575060009050600361170d565b6040805160008082526020820180845289905260ff881692820192909252606081018690526080810185905260019060a0016020604051602081039080840390855afa1580156116dd573d6000803e3d6000fd5b5050604051601f1901519150506001600160a01b0381166117065760006001925092505061170d565b9150600090505b94509492505050565b600081600481111561172a5761172a611eeb565b036117325750565b600181600481111561174657611746611eeb565b036117935760405162461bcd60e51b815260206004820152601860248201527f45434453413a20696e76616c6964207369676e617475726500000000000000006044820152606401610569565b60028160048111156117a7576117a7611eeb565b036117f45760405162461bcd60e51b815260206004820152601f60248201527f45434453413a20696e76616c6964207369676e6174757265206c656e677468006044820152606401610569565b600381600481111561180857611808611eeb565b0361063d5760405162461bcd60e51b815260206004820152602260248201527f45434453413a20696e76616c6964207369676e6174757265202773272076616c604482015261756560f01b6064820152608401610569565b6001600160a01b038381166000908152600960205260408082205485841683529120546113c3929182169116836114d6565b600080608083901c156118a757608092831c92015b604083901c156118b957604092831c92015b602083901c156118cb57602092831c92015b601083901c156118dd57601092831c92015b600883901c156118ef57600892831c92015b600483901c1561190157600492831c92015b600283901c1561191357600292831c92015b600183901c156104b65760010192915050565b60008183106119355781610594565b5090919050565b825460009081908181156119895760008781526020902082016000190160408051808201909152905463ffffffff8116825264010000000090046001600160e01b0316602082015261199e565b60408051808201909152600080825260208201525b905080602001516001600160e01b031693506119be84868863ffffffff16565b92506000821180156119e857506119d3610770565b65ffffffffffff16816000015163ffffffff16145b15611a2d576119f683611ad9565b60008881526020902083016000190180546001600160e01b03929092166401000000000263ffffffff909216919091179055611aa7565b866040518060400160405280611a51611a44610770565b65ffffffffffff166111cb565b63ffffffff168152602001611a6586611ad9565b6001600160e01b0390811690915282546001810184556000938452602093849020835194909301519091166401000000000263ffffffff909316929092179101555b5050935093915050565b600060ff8216601f8111156104b657604051632cd44ac360e21b815260040160405180910390fd5b60006001600160e01b038211156112305760405162461bcd60e51b815260206004820152602760248201527f53616665436173743a2076616c756520646f65736e27742066697420696e20326044820152663234206269747360c81b6064820152608401610569565b6000815180845260005b81811015611b6857602081850181015186830182015201611b4c565b506000602082860101526020601f19601f83011685010191505092915050565b6020815260006105946020830184611b42565b80356001600160a01b0381168114611bb257600080fd5b919050565b60008060408385031215611bca57600080fd5b611bd383611b9b565b946020939093013593505050565b600080600060608486031215611bf657600080fd5b611bff84611b9b565b9250611c0d60208501611b9b565b9150604084013590509250925092565b600060208284031215611c2f57600080fd5b61059482611b9b565b60ff60f81b881681526000602060e081840152611c5860e084018a611b42565b8381036040850152611c6a818a611b42565b606085018990526001600160a01b038816608086015260a0850187905284810360c0860152855180825283870192509083019060005b81811015611cbc57835183529284019291840191600101611ca0565b50909c9b505050505050505050505050565b600060208284031215611ce057600080fd5b5035919050565b803560ff81168114611bb257600080fd5b60008060008060008060c08789031215611d1157600080fd5b611d1a87611b9b565b95506020870135945060408701359350611d3660608801611ce7565b92506080870135915060a087013590509295509295509295565b600080600080600080600060e0888a031215611d6b57600080fd5b611d7488611b9b565b9650611d8260208901611b9b565b95506040880135945060608801359350611d9e60808901611ce7565b925060a0880135915060c0880135905092959891949750929550565b60008060408385031215611dcd57600080fd5b611dd683611b9b565b9150611de460208401611b9b565b90509250929050565b60008060408385031215611e0057600080fd5b611e0983611b9b565b9150602083013563ffffffff81168114611e2257600080fd5b809150509250929050565b600181811c90821680611e4157607f821691505b6020821081036113bd57634e487b7160e01b600052602260045260246000fd5b634e487b7160e01b600052601160045260246000fd5b808201808211156104b6576104b6611e61565b634e487b7160e01b600052603260045260246000fd5b818103818111156104b6576104b6611e61565b634e487b7160e01b600052601260045260246000fd5b600082611ee657634e487b7160e01b600052601260045260246000fd5b500490565b634e487b7160e01b600052602160045260246000fdfea264697066735822122069ee8ad5f48d2289dfc7bb6189482f325c58704d769546ae870e96916a5eac9f64736f6c63430008140033dec2bacdd2f05b59de34da9b523dff8be42e5e38e818c82fdb0bae774387a724",
  "linkReferences": {},
  "deployedLinkReferences": {}
}